:020000040800F2
:10000000008000203D16000855150008571500080F
:10001000591500085B1500085D1500080000000078
:100020000000000000000000000000005F15000854
:100030006115000800000000631500086515000840
:100040008D1600088D1600088D1600088D16000804
:100050008D1600088D1600086D1500088D16000815
:100060008D16000877150008811500088D16000808
:100070008D1600088D1500088D1600088D160008D5
:100080008D160008000000008D1600088D1600086F
:100090009D1500088D1600088D160008AD15000886
:1000A0008D160008D5150008E51500088D16000806
:1000B0008D1600088D1600088D1600088D16000894
:1000C0008D1600088D1600088D1600088D16000884
:1000D0008D1600088D1600088D1600088D16000874
:1000E000F51500088D1600088D1600088D160008FD
:1000F0008D1600088D1600088D16000800000000FF
:10010000000000008D160008000000008D16000899
:100110008D160008000000008D1600081916000852
:100120008D1600088D1600088D1600088D16000823
:100130008D16000800000000000000008D16000869
:100140008D1600088D160008000000000000000059
:10015000000000000000000000000000000000009F
:100160000000000000000000000000008D160008E4
:100170008D160008000000000000000000000000D4
:10018000000000008D1600080000000000000000C4
:10019000000000000000000000000000000000005F
:1001A00000000000000000008D1600088D160008F9
:1001B0008D1600088D1600088D160008000000003E
:1001C000000000008D160008000000000000000084
:0801D0008D1600088D160008D1
:1001D80010B5054C237833B9044B13B10448AFF379
:1001E80000800123237010BDAC0100200000000036
:1001F8009871000808B5034B1BB103490348AFF3D6
:10020800008008BD00000000B001002098710008BF
:1002180008B502220649074801F0E4FE0222064911
:10022800064801F0DFFE064804F0D6F908BD00BF15
:10023800C801002068080020CC010020D408002054
:10024800440B002004E03A4B1B889BB2934214D322
:10025800374B1B889BB2374A128892B29B1A40F6DA
:10026800E342934211DC344B1A88324B1B889BB211
:100278009342E8D92F4B1A80E5E72D4B1A80E7E720
:100288002E4B1B889BB2934214D32C4B1B889BB2DA
:100298002B4A128892B29B1A40F6E342934211DC31
:1002A800254B5A88264B1B889BB29342E8D9244B8E
:1002B8001A80E5E7214B1A80E7E7224B1B889BB29F
:1002C800934214D31F4B1B889BB21F4A128892B2C9
:1002D8009B1A40F6E342934211DC1C4B1A881A4BD6
:1002E8001B889BB29342E8D9174B1A80E5E7154B58
:1002F8001A80E7E7164B1B889BB2934214D3144B22
:100308001B889BB2134A128892B29B1A40F6E342AA
:1003180093420CDC0D4B5A880E4B1B889BB29342C0
:10032800E8D90C4B1A80E5E7094B1A80E7E77047D4
:10033800D801002004000020C8010020DC010020B2
:1003480008000020DA01002006000020CC0100206F
:10035800DE0100200A00002082B0ADF80610ADF8DA
:1003680004205A4A128892B2824204D8584A128803
:1003780092B282423DD2BDF8041089B2BDF806207F
:1003880092B2914238D0BDF8062092B2824204D887
:100398004E4A128892B2824232D84D4A128892B29C
:1003A800824204D2BDF8042092B2824248D2BDF8FB
:1003B800062092B2824263D8BDF8042092B28242EB
:1003C8001CD2BDF8042092B2D202BDF8041089B242
:1003D800BDF8060080B2091A92FBF1F2A2F580621C
:1003E80012B21A80B2F5806F69DD4FF480621A800C
:1003F80004E000221A8001E000221A8002B070474F
:10040800BDF8062092B2821AD202BDF8041089B251
:10041800BDF8060080B2091A92FBF1F2A2F58062DB
:1004280012B21A80B2F5806F03DD4FF480621A8031
:10043800E4E712F5806FE1DA4FF47C421A80DDE7D9
:10044800BDF8062092B2821AD202BDF8041089B211
:10045800BDF8060080B2091A92FBF1F2A2F580629B
:1004680012B21A80B2F5806F03DD4FF480621A80F1
:10047800C4E712F5806FC1DA4FF47C421A80BDE7F9
:10048800BDF8062092B2D202BDF8041089B2BDF8B8
:10049800060080B2091A92FBF1F2A2F5806212B24C
:1004A8001A80B2F5806F03DD4FF480621A80A5E7E9
:1004B80012F5806FA2DA4FF47C421A809EE712F59B
:1004C800806F9BDA4FF47C421A8097E70200002085
:1004D800000000202DE9F04123484488234B1E8862
:1004E800B3F80280224B1988224B1A88224D2B46DA
:1004F80092B289B20088FFF72FFF204B1988204B52
:100508001A88204F3B4692B289B22046FFF724FF53
:100518001D4B19881D4B1A881D4C234692B289B26F
:100528003046FFF719FF1B4B19881B4B1A881B4EC7
:10053800334692B289B24046FFF70EFF33885B42DA
:100548009BB2338039884900154AA2F803102988DC
:100558004900A2F805105B00A2F8073023885B0069
:10056800A2F80930BDE8F081C8010020CC010020C4
:1005780004000020D8010020D0010020080000203D
:10058800DC010020D401002006000020DA01002050
:10059800D20100200A000020DE010020D601002040
:1005A8005C08002038B504460D4602F0EFF840B963
:1005B800094B1A6800235362084A1360084B01224A
:1005C8001A702946204602F0E1F8012800D038BD0B
:1005D800034B00221A70FAE7600A00205405002035
:1005E8004402002070B54FF090431B6903F4674341
:1005F800B3480380B34A136903F00903B2490B8077
:10060800136903F0F003B14A13800488A4B2B04B15
:100618001B889BB25C400E88B6B2AE4B1B889BB25F
:100628005E401588ADB2AC4B1B889BB25D4014F49C
:10063800807F0FD0038813F4807F00F0DF80A74A03
:10064800138823F0010313804FF480714FF090401A
:10065800FFF7A8FF14F4007F0FD0994B1B8813F401
:10066800007F00F0D7809D4A138823F00803138089
:1006780010214FF09040FFF795FF14F4806F10D0D1
:100688008F4B1B8813F4806F00F0CF80934A138838
:1006980023F0040313804FF480614FF09040FFF77C
:1006A80081FF16F0010F0ED0874B1B8813F0010F46
:1006B80000F0C780894A138823F0020313800121C0
:1006C8008048FFF76FFF14F4804F10D07C4B1B88D5
:1006D80013F4804F00F0BF80804A138823F0200372
:1006E80013804FF480414FF09040FFF75BFF14F404
:1006F800005F10D0724B1B8813F4005F00F0B780C6
:10070800764A138823F0800313804FF400514FF08A
:100718009040FFF747FF14F4004F40F0B48016F004
:10072800080F0ED0684B1B8813F0080F00F0E0800C
:100738006A4A138823F01003138008216148FFF7E1
:1007480031FF15F0400F0CD0604B1B8813F0400FA1
:1007580000F0D880624B00221A7040215948FFF7F8
:1007680021FF15F0200F0CD0584B1B8813F0200FD9
:1007780000F0D0805B4B00221A7020215148FFF70F
:1007880011FF15F0100F0CD0504B1B8813F0100FF1
:1007980000F0C880544B00221A7010214948FFF716
:1007A80001FF15F0800F0CD0484B1B8813F0800F09
:1007B80000F0C0804D4B00221A7080214148FFF79D
:1007C800F1FE484B1B78002B00F0C780474B1B7885
:1007D800002B00F0B780414B07229A70384B1B88DA
:1007E8009BB23B4A1380384B1B889BB2394A138013
:1007F800364B1B889BB2384A138070BD374A138822
:1008080043F0010313804FF480714FF09040FFF7DD
:10081800C9FE1FE7314A138843F0080313801021EB
:100828004FF09040FFF7BEFE27E72C4A138843F0AD
:10083800040313804FF480614FF09040FFF7B2FE3D
:100848002FE7264A138843F00203138001211D482D
:10085800FFF7A8FE37E7214A138843F020031380E7
:100868004FF480414FF09040FFF79CFE3FE71B4A52
:10087800138843F0800313804FF400514FF09040E9
:10088800FFF790FE47E70E4B1B8813F4004F0BD180
:10089800124A138843F0400313804FF400414FF08D
:1008A8009040FFF77FFE3AE70C4A138823F0400395
:1008B80013804FF400414FF09040FFF773FE2EE78E
:1008C800DC0B002000040048DE0B0020E00B0020B9
:1008D800E40B0020E60B0020E20B00205C0800205F
:1008E8004C0500204F0500204E0500204D05002036
:1008F8002D4A138843F01003138008212B48FFF773
:1009080051FE1EE72A4B01221A7040212748FFF7A3
:1009180049FE26E7274B01221A7020212348FFF7BA
:1009280041FE2EE7244B01221A7010211F48FFF7C1
:1009380039FE36E7214B01221A7080211B48FFF748
:1009480031FE3EE71C4B1B781BB1174B01229A70F6
:1009580044E7154B00229A7040E7154B1B788BB182
:10096800164B1B781BB1104B05229A7036E7124BB9
:100978001B781BB10C4B03229A702FE70A4B0422F9
:100988009A702BE70D4B1B781BB1074B06229A7008
:1009980024E7094B1B781BB1034B02229A701DE711
:1009A800014B08229A7019E75C08002000040048EF
:1009B8004C0500204F0500204E0500204D05002065
:1009C80030B4164B00EB400103EB810253F8214091
:1009D8005368190241EA044193681943104B19609E
:1009E800172308E000EB400203EBC2020D4C14256C
:1009F80044F82250013B002B0DDB21FA03F212F0E0
:100A0800010FEFD000EB400203EBC202054C282592
:100A180044F82250EEE730BC704700BFE4010020E4
:100A28004802002058050020002007281DD8002370
:100A3800172B17D810B400EB4001CA001A440B4C0E
:100A480054F822400A4941F822400133DBB2172BFF
:100A5800F1D90130C0B2072801D80023F7E75DF8C3
:100A6800044B70470130C0B2DFE7704758050020DB
:100A78004C02002038B5074C00EB400E04EB8E0505
:100A880044F82E106A60AB60FFF79AFFFFF7CCFFBF
:100A980038BD00BFE401002008B54FF4C073034A15
:100AA8000421034804F04EF908BD00BF4C020020A1
:100AB800F80A002010B5002406E000231A4619465B
:100AC800E0B2FFF7D7FF0134072CF6DDFFF7E4FFAC
:100AD80010BD10B5002406E00023FF221146E0B245
:100AE800FFF7C8FF0134072CF6DDFFF7D5FF10BD6F
:100AF80008B502685C4B9A4204D002685B4B9A4284
:100B080041D008BD5A4A136801331360594B1B780A
:100B1800002BF2D0584B1B685A6A554909684FF0A8
:100B2800640C0CFB0122272A02D8544A00211170B8
:100B38005A6A4F4909684FF0640C0CFB0122272AB6
:100B48000AD95A6A4A4909680CFB0122B2F5FA7FA8
:100B580002D24A4A012111705A6A454909684FF080
:100B6800640C0CFB0122B2F5FA7FC6D35B6A404ADB
:100B780012680CFB023341F287329342BDD83F4BD7
:100B880002221A70B9E708214FF0904001F0FEFDEB
:100B980001281ED03A4A138843F480731380394BD6
:100BA8001B7843BB374B00221A7020214FF090402E
:100BB80001F0ECFD012824D0314A138843F4007376
:100BC8001380314B1B78002B48D12F4B00221A7011
:100BD80097E72B4A138823F480731380294B1B78DB
:100BE8001BB1284B01221A70DFE708214FF0904013
:100BF800FFF7D8FCF5E708214FF09040FFF7D2FC4B
:100C0800D0E71F4A138823F4007313801E4B1B7808
:100C1800ABB11D4B01221A70184B1B7893423FF45D
:100C280070AF022B7FF46DAF184B1B786BB1FFF7D9
:100C380041FF0023154A1370104A137061E7202101
:100C48004FF09040FFF7AEFCE3E7FFF742FF0F4B92
:100C580001221A70094B00221A7052E720214FF026
:100C68009040FFF79FFCB0E7004401400048014076
:100C78005405002044020020600A0020E001002002
:100C88005C08002058080020590800205005002062
:100C980008B5FFF71FFC0B220249034805F0E5FAE7
:100CA80008BD00BF5C080020F40B00202DE9F041CE
:100CB8008AB00024059406940794089409944A4B32
:100CC800DA6C42F02002DA64DA6C02F02002019257
:100CD800019ADA6C42F04002DA64DA6C02F04002FF
:100CE8000292029ADA6C42F00102DA64DA6C02F0DB
:100CF80001020392039ADA6C42F00202DA64DB6CB6
:100D080003F002030493049B4FF48063059305A941
:100D1800364801F051FC282605960694079405A943
:100D28004FF0904001F048FCF12305934FF444152F
:100D380006950794DFF8B88005A9404601F03CFC09
:100D48004FF4E06305930695079405A94FF090408A
:100D580001F032FC4FF4C04305934FF48813069317
:100D68000127079705A94FF0904001F025FC4FF4A3
:100D7800004305930695079705A94FF0904001F0A9
:100D88001BFC082305930695079705A9404601F023
:100D980013FC22462146062001F042FA062001F003
:100DA80077FA22462146092001F03AFA092001F093
:100DB8006FFA224621460A2001F032FA0A2001F091
:100DC80067FA22462146172001F02AFA172001F077
:100DD8005FFA22462146304601F022FA304601F0F9
:100DE80057FA0AB0BDE8F081001002400018004828
:100DF8000004004800B583B00E4B9A6C42F0040220
:100E08009A649A6C02F004020092009A9A6C42F07A
:100E180001029A649B6C03F001030193019B002279
:100E280002210D2001F0FCF90D2001F031FA03B088
:100E38005DF804FB0010024008B5FFF7D3FB08BDBE
:100E480072B6FEE710B58CB0002409940A940B948E
:100E58002022214601A806F06EF927484FF0A0434A
:100E680003604FF4003343608460C460046101236D
:100E7800436108228261047743770222026280F884
:100E880024404FF4B462C2624FF48062026380F877
:100E980038304FF48053C36380F8404000F052FC70
:100EA80010BB0023099309A9134801F01DF9E8B9FB
:100EB800124B019306230293002303937F2204928B
:100EC8000422059206930DEB02010B4800F0AEFDDB
:100ED80070B90B4B01930C23029301A9064800F04B
:100EE800A5FD38B90CB010BDFFF7AAFFFFF7A8FFA2
:100EF800FFF7A6FFFFF7A4FF6808002002003004F0
:100F08000800900C00B585B0002301930293039369
:100F18000E480F4A02602F224260836040F2E73396
:100F2800C3608023836103F0BBFD58B9202301937C
:100F38000023039301A9054804F082F820B905B0FD
:100F48005DF804FBFFF77CFFFFF77AFF440B0020F6
:100F58000010004008B50B480B4B03604BF67F337D
:100F68004360002383606322C2600361436183613D
:100F780003F096FD18B9034803F06CFB08BDFFF7B2
:100F88005FFF00BFAC0A00200048014000B585B0F3
:100F980000230193029303930D480E4A02604BF617
:100FA8007F32426083606322C260836103F078FD10
:100FB80050B900230193039301A9054804F040F8B0
:100FC80020B905B05DF804FBFFF73AFFFFF738FFDB
:100FD800900B00200014004008B50B480B4B036031
:100FE8004BF67F334360002383606322C260036152
:100FF8004361836103F054FD18B9034803F02AFBE9
:1010080008BDFFF71DFF00BF600A00200044014033
:1010180000B589B020220021684606F08CF82348E4
:10102800234B03604FF40033436000238360C360A5
:10103800036101224261082181610377427702211D
:10104800016280F824304FF4B461C1624FF48061CA
:10105800016380F838204FF48052C26380F8403032
:1010680000F070FBD8B9134B0093062301930023BB
:1010780002937F22039204220492059369460B4847
:1010880000F0D4FC68B90C4B00930C23019369461B
:10109800064800F0CBFC30B909B05DF804FBFFF757
:1010A800CFFEFFF7CDFEFFF7CBFE00BFD408002030
:1010B80000010050040060080800900C00B58BB0D7
:1010C80000230793089309930093019302930393D2
:1010D8000493059306931648164A0260436083609A
:1010E8003B22C2600361836103F00AFDC8B9002393
:1010F8000793099307A90E4803F0A2FF98B9602344
:10110800009300230193029304930422694608483C
:1011180003F06CFD48B9064800F0F0F90BB05DF833
:1011280004FBFFF78DFEFFF78BFEFFF789FE00BF7C
:10113800F80A00200004004000B595B038220021CC
:1011480006A805F0F8FF0023019302930393049384
:1011580005934FF4007002F01DFB012306934FF432
:101168008033079302230D9303220E920F920C22D1
:101178001092119304221292139306A802F0C4FB52
:1011880078B90F2301930223029300230393049356
:101198000593012101A802F06DFE20B915B05DF894
:1011A80004FBFFF74DFEFFF74BFE000008B500F00B
:1011B80093FAFFF7C1FFFFF779FDFFF71BFEFFF773
:1011C80041FE05F08DFDFFF79DFEFFF7C3FEFFF71B
:1011D800DDFEFFF701FFFFF71BFFFFF76FFFFFF7CC
:1011E80017F8FFF72FF8FFF753FD322000F096FAB3
:1011F800024A137801331370F5E700BF670800202F
:1012080000B583B00B4B1A6E42F001021A661A6ED3
:1012180002F001020092009A9A6D42F080529A659B
:101228009B6D03F080530193019B02F039FB03B0DF
:101238005DF804FB0010024070B59AB00446002126
:1012480015911691179118911991442204A805F047
:1012580072FF2368B3F1A04F04D0544A934252D08E
:101268001AB070BD4FF4004304934FF0005313932A
:1012780004A802F0FBFE002834D14D4A136801335C
:101288001360012B31D04B4BDA6C42F00102DA6467
:10129800DB6C03F001030193019B052615960323DC
:1012A80016930025179515A94FF0904001F084F981
:1012B8004148424B036046608560C56080230361F6
:1012C8004FF4807343614FF4806383612023C361CB
:1012D8004FF40053036201F057F888B9364B636541
:1012E8009C62BDE7FFF7ACFDC7E7324BDA6C42F40E
:1012F8000052DA64DB6C03F400530093009BC2E7EE
:10130800FFF79EFDEAE74FF4004304934FF00053C4
:10131800139304A802F0AAFE002835D1244A1368C2
:1013280001331360012B32D0224BDA6C42F00102F8
:10133800DA64DB6C03F001030393039B42231593E8
:10134800032316930025179515A94FF0904001F037
:1013580033F91B481B4B0360242343608560C56039
:10136800802303614FF4807343614FF4806383618A
:101378002023C3614FF40053036201F005F888B9D4
:101388000F4B63659C626BE7FFF75AFDC6E7094B95
:10139800DA6C42F40052DA64DB6C03F40053029313
:1013A800029BC1E7FFF74CFDEAE700BF00010050D0
:1013B800E80B00200010024040090020080002400D
:1013C800A00900201C0002400268194B9A4200D074
:1013D800704710B582B0044603F503339A6D42F0A6
:1013E80002029A659B6D03F002030193019B114869
:1013F800114B03603E234360102383600023C360C6
:10140800802202614FF4807242614FF480628261EF
:10141800C3614FF40053036200F0B6FF20B9054BD7
:10142800A3629C6202B010BDFFF70AFDF7E700BF98
:1014380000040040000A00203000024000B585B0DA
:101448000368294A93420BD0284A934213D0284A6A
:10145800934223D0274A934233D005B05DF804FB6A
:10146800254B9A6D42F010029A659B6D03F01003AC
:101478000093009BF1E7204B9A6D42F020029A6599
:101488009B6D03F020030193019B00221146372036
:1014980000F0C6FE372000F0FBFEDEE7164B1A6EA2
:1014A80042F400321A661B6E03F400330293029B67
:1014B80000221146192000F0B3FE192000F0E8FEC2
:1014C800CBE70D4B1A6E42F480221A661B6E03F4AA
:1014D80080230393039B002211461A2000F0A0FEEC
:1014E8001A2000F0D5FEB8E70010004000140040B4
:1014F80000440140004801400010024000B587B098
:1015080000230193029303930493059302680E4BFF
:101518009A4202D007B05DF804FB03F50333DA6C96
:1015280042F00102DA64DB6C03F001030093009BD4
:101538008023019302230293059301A94FF0904061
:1015480001F03AF8E6E700BF00040040FEE7FEE7D6
:10155800FEE7FEE7FEE770477047704708B500F002
:10156800CBF808BD08B5012001F018F908BD08B589
:10157800082001F013F908BD08B5102001F00EF994
:1015880008BD000008B5024800F0B4FF08BD00BF60
:10159800000A002008B5024801F0BEFE08BD00BFE1
:1015A800C410002008B5202001F0F8F8402001F010
:1015B800F5F8802001F0F2F84FF4807001F0EEF8B1
:1015C8004FF4007001F0EAF808BD000008B50248C1
:1015D80003F0DEF808BD00BF600A002008B5024825
:1015E80003F0D6F808BD00BFAC0A002008B54FF4D8
:1015F800806001F0D3F84FF4005001F0CFF84FF4B9
:10160800804001F0CBF84FF4004001F0C7F808BD66
:1016180008B5024803F0BCF808BD00BF900B0020D5
:10162800034AD2F8883043F47003C2F88830704710
:1016380000ED00E00D488546FFF7F2FF0C480D4924
:101648000D4A002302E0D458C4500433C4188C4215
:10165800F9D30A4A0A4C002301E013600432A2427B
:10166800FBD305F071FDFFF7A1FDFEE70080002028
:1016780000000020AC010020F0710008AC0100203F
:10168800F8130020FEE70000104B1B680BB901207F
:10169800704710B504464FF47A70B0FBF3F30C4A68
:1016A8001068B0FBF3F000F001FE68B90F2C01D907
:1016B80001200AE0002221464FF0FF3000F0B0FD83
:1016C800044B1C60002000E0012010BD1000002029
:1016D8000C0000201400002010B5032000F08EFD3F
:1016E8000F20FFF7D1FF10B10124204610BD04469A
:1016F800FFF786FDF9E70000034A13680349096804
:101708000B441360704700BFEC0B00201000002052
:10171800014B1868704700BFEC0B002038B5044631
:10172800FFF7F6FF0546B4F1FF3F02D0044B1B68F4
:101738001C44FFF7EDFF401BA042FAD338BD00BFA1
:101748001000002030B583B000230193002800F07A
:1017580007810446C36D13B323689A6812F0005FCB
:1017680005D09A6822F0204222F03F029A6022684F
:10177800936813F0805F1FD1936823F0104323F020
:101788003F0343F080539360764B1B689B09764A6E
:10179800A2FB03239B0901335B00019309E0FFF7D8
:1017A8004BFD0023236684F85830D5E7019B013BA5
:1017B8000193019B002BF9D12268936813F0805F95
:1017C80040F09680E36D43F01003E365236E43F029
:1017D800010323660120936813F0040300D001235A
:1017E800E16D11F0100F40F0B480002B40F0B18093
:1017F800E36D23F4817343F00203E365936813F008
:10180800010F15D14FF0A0439A6812F0010200D0E1
:101818000122564B9B6813F0010300D001231343A8
:1018280006D1636852498A6822F47C1213438B609C
:10183800627FE36B43EA4233E2681343A2681343CF
:1018480094F8242043EA0243012A53D0E26A22B1E1
:1018580002F47872216B0A4313432168CD68454A24
:101868002A401A43CA602268136923F04063616BF7
:101878000B4313612268936813F0080300D0012317
:101888003BBB237F94F83810490041EA8331D36881
:1018980023F4804323F002030B43D360236973B31B
:1018A8002268136943F4803313612268D2F8C03088
:1018B80023F47F5323F03F0321690B43C2F8C03060
:1018C80094F84030012B29D02268136923F00103D2
:1018D80013616369012B33D02268136B23F00F0364
:1018E8001363E36D23F0030343F00103E36535E07D
:1018F800002070E7A26A013A43EA4243A6E7226859
:10190800136923F4803313612268D2F8C03023F4BA
:101918007F5323F03F03C2F8C030D1E721680B6939
:1019280023F4FF6323F00403626CA56C2A43E56C7F
:101938002A43256D2A43134343F001030B61C8E78B
:1019480021680B6B23F00F03226A013A13430B63E0
:10195800C7E7E36D43F01003E365012003B030BD32
:101968000120FBE70C000020632D3E05000100501C
:10197800000300500740F0FF7047704708B5806AC1
:10198800FFF7FBFF08BD704708B50346806AC26DC4
:1019980012F0500F30D1C36D43F40073C365036870
:1019A8001A6812F0080F14D0DA6812F4406F20D1C8
:1019B800DB6813F4005F1CD1C36D23F48073C36527
:1019C800C36D13F4805F14D1C36D43F00103C36585
:1019D8000FE0DB6813F0020F0BD1C36D23F48073A3
:1019E800C365C36D13F4805F03D1C36D43F0010376
:1019F800C365FFF7C1FF08BDC26D12F0100F04D117
:101A0800426D526B18469047F5E7FFF7BCFFF2E7C7
:101A180008B5806AC36D43F04003C365036E43F0A5
:101A280004030366FFF7AFFF08BD0000F0B583B0FD
:101A38000022019290F85820012A00F05A820346A9
:101A4800012280F858200568A86810F0040F09D012
:101A5800DA6D42F02002DA650120002283F858206E
:101A680003B0F0BD4C683035220A920002F00C0237
:101A7800A85804F01F0E1F2404FA0EF420EA0400EC
:101A88000C68C4F3846C0CFA0EFC40EA0C00A850F5
:101A98001868826812F0040200D00122846814F0E9
:101AA800080400D00124002A4DD1002C4BD18D68A8
:101AB800B5F1004F7FD00F6814307A0E920002F013
:101AC80004028658C7F3045E072707FA0EF726EACA
:101AD800070C05FA0EF54CEA0505855018684269A9
:101AE80022F0004242614D691868C268C2F3C1021F
:101AF800520095400E69042E75D0603050F826705B
:101B0800A74A3A400F6807F0F8473D432A4342F096
:101B1800004240F826201A680E698869603252F837
:101B2800265025F08075284342F826001A680D696A
:101B3800087F012854D0603252F8250020F0007048
:101B4800044342F825401868826812F0010F17D143
:101B58000A68CD68D0F8B040C2F3120C24EA0C042D
:101B680005F0180C8F4D25FA0CF52A40C2F3120225
:101B78002243C0F8B020C8688B4A904200F09B808E
:101B88000A688A490A4200F0AC818949896801F0EB
:101B9800E070884CA24200F05B81874CA24200F0C2
:101BA8005781864CA24200F07981854CA24200F010
:101BB8008781002051E70D6814306A0E920002F008
:101BC80004028658C5F30455072707FA05F526EADF
:101BD800050585501868426942F00042426182E773
:101BE8004FF00074A7E7026E046EC4F384640A68B9
:101BF800C2F3120585BBC2F38462944234D01C68D8
:101C0800626E606EC0F384600A68C2F3120585BB19
:101C1800C2F38462904234D01C68A26EA06EC0F3F6
:101C280084600A68C2F3120585BBC2F384629042DD
:101C380034D01C68E26EE06EC0F384600A68C2F3B8
:101C4800120585BBC2F3846290427FF47CAFE26EDA
:101C580022F00042E26676E792FAA2F212B1B2FAF4
:101C680082F2CAE72022C8E7026E22F0004202662A
:101C7800C5E792FAA2F212B1B2FA82F2CAE72022BA
:101C8800C8E7626E22F000426266C5E792FAA2F2E5
:101C980012B1B2FA82F2CAE72022C8E7A26E22F095
:101CA8000042A266C5E792FAA2F212B1B2FA82F233
:101CB800CAE72022C8E71C680A68C2F31205002D8B
:101CC80036D1900E013000F01F0009288CBF00208B
:101CD8000120002876D0002D39D1900E01308006E1
:101CE80000F0F840002D3ED1970E013707F01F078E
:101CF8000126BE403043002D43D1920E013202F03E
:101D08001F0202EB4202120510438D6804F114070A
:101D1800420E920002F00402BC58C0F30450072699
:101D2800864024EA060C85404CEA0505BD5027E7A5
:101D380092FAA2F048B1B0FA80F0013000F01F002A
:101D480009288CBF00200120C3E72020F5E792FA7C
:101D5800A2F030B1B0FA80F00130800600F0F8400F
:101D6800C0E72020F8E792FAA2F646B1B6FA86F65E
:101D7800013606F01F06012707FA06F6BAE72026FD
:101D8800F6E792FAA2F242B1B2FA82F2013202F016
:101D98001F0202EB42021205B6E72022F6E700BF57
:101DA80000F0FF03FFFF070000007F4000000880ED
:101DB80000030050000021C31000C090000052C76B
:101DC800000084CBCDB9900E0130800600F0F840B9
:101DD800FDB9970E013707F01F070126BE403043B3
:101DE8002DBB920E013202F01F0202EB42021E3A94
:101DF800120542F00072104387E792FAA2F030B160
:101E0800B0FA80F00130800600F0F840E0E72020CA
:101E1800F8E792FAA2F646B1B6FA86F6013606F067
:101E28001F06012707FA06F6D9E72026F6E792FAF1
:101E3800A2F25AB1B2FA82F2013202F01F0202EBA8
:101E480042021E3A120542F00072D4E72022F3E75C
:101E580011F4000F7FF4A5AE1A68B2F1A04F01D0BB
:101E68000020FAE540F4000023498A6822F0E07275
:101E780010438860214A126892092149A1FB021285
:101E88009209013202EB420292000192019A1AB1C0
:101E9800019A013A0192F9E70020DEE511F0807F0E
:101EA8007FF483AE1968174A91421CD040F08070C5
:101EB80011498A6822F0E072104388600020CCE55E
:101EC80011F4800F11D119680E4A91420FD040F4D5
:101ED80080020948816821F0E0710A43826000208D
:101EE800BBE50020B9E50020B7E50020B5E50020F6
:101EF800B3E50220B4E500BF000300500C00002049
:101F0800632D3E050001005030B583B000230193D6
:101F180003689A6812F0010F58D1044699682D4A4F
:101F2800114219D19A6822F0004222F03F0242F091
:101F380001029A60284B9B6813F4000F1CD0274BB2
:101F48001B689B09264AA2FB03239B09013303EB69
:101F580043039B0001930CE0C36D43F01003C3657A
:101F6800036E43F001030366012030E0019B013B4F
:101F78000193019B002BF9D1FFF7CAFB05462368A3
:101F88001A6812F0010F1FD19A6812F0010F07D1D9
:101F98009A6822F0004222F03F0242F001029A6061
:101FA800FFF7B6FB431B022BE9D923681B6813F024
:101FB800010FE4D1E36D43F01003E365236E43F0B2
:101FC80001032366012002E0002000E0002003B0A6
:101FD80030BD00BF3F000080000300500C0000200F
:101FE800632D3E05F8B504463A4B9D680068806845
:101FF80010F0040F69D10E46174605F01F0594F836
:102008005830012B63D0012384F8583045B1052D91
:1020180006D0092D04D0002384F85830012055E05B
:102028002046FFF771FF00284BD1E36D23F470635E
:1020380023F0010343F48073E3652368264A93423F
:1020480039D01A46934200D01DB9E36D23F48013AA
:10205800E365E36D13F4805F30D0236E23F006034D
:102068002366636D1D4ADA62636D1D4A1A63636DE8
:102078001C4A5A6323681C221A60002384F85830CB
:102088002268536843F0100353602268D36843F012
:102098000103D36021683B4632464031606D00F051
:1020A800DFF92268936823F0004323F03F0343F0ED
:1020B800040393600AE04FF0A042C3E700232366BD
:1020C800CFE7002384F8583000E00220F8BD022052
:1020D800FCE700BF00030050000100509119000800
:1020E80085190008191A000890F85820012A7FD08D
:1020F80010B49DB00346012280F85820002218929F
:1021080019920068B0F1A04F39D000220192019ACB
:10211800002A37D0926812F0040200D001228068A9
:1021280010F0040F54D1002A52D10A68002A32D084
:10213800304CA26822F46042486893F838C040EAFC
:102148004C300243A2604FF0A042906810F00100AA
:1021580000D00120284A926812F0010200D0012222
:10216800024341D1234CA26822F4716222F00F028B
:102178000868896801430A43A26000202DE01E4ACE
:102188000192C4E7DA6D42F02002DA65002283F892
:102198005820012024E017498A6822F460428A60A6
:1021A8004FF0A042916811F0010100D00121124ABC
:1021B800926812F0010200D001220A4316D10D499B
:1021C8008A6822F4716222F00F028A60002004E01B
:1021D800DA6D42F02002DA650120002283F85820E7
:1021E8001DB05DF8044B70470020F6E70020F4E7C7
:1021F800022070470003005000010050074AD368CE
:1022080023F4E0631B041B0C000200F4E0600343AA
:1022180043F0BF6343F40033D360704700ED00E040
:1022280000B5194BDB68C3F30223C3F1070CBCF1FB
:10223800040F28BF4FF0040C03F1040EBEF1060F83
:1022480018D9033B4FF0FF3E0EFA0CFC21EA0C01B3
:1022580099400EFA03FE22EA0E020A4300280BDB1D
:102268001201D2B200F1604000F5614080F800230D
:102278005DF804FB0023E5E700F00F001201D2B27D
:10228800024B1A54F4E700BF00ED00E014ED00E043
:10229800002807DB00F01F02400901239340024A8F
:1022A80042F82030704700BF00E100E00138B0F18B
:1022B800807F0BD24FF0E0235861054AF02182F865
:1022C80023100020986107221A6170470120704787
:1022D80000ED00E030B4C46C056D6560446D14B168
:1022E800846DC56D6560446C04F01F0C012404FA0C
:1022F8000CF4056C6C60046863608368102B05D06F
:10230800036899600368DA6030BC704703689A60B4
:102318000368D960F8E7000003680C4A934213D8B1
:102328000B49DBB2083B0B4AA2FB0323426C22F0A9
:1023380003020A448264084AC264C3F304130122F4
:1023480002FA03F3036570470449EAE70704024009
:1023580000080240CDCCCCCC8008024020080240C6
:102368000379074A1A4492004265064A8265013B8E
:1023780003F01F03012202FA03F3C365704700BF8D
:102388003F8200104009024000285BD010B5044687
:1023980001682D4B99423DD82C4B0B442C4AA2FB8B
:1023A80003231B099B0043642A4B0364022384F81C
:1023B80025300A6822F4FF4222F07002A368E06820
:1023C80003432069034360690343A0690343E06949
:1023D8000343206A034313430B602046FFF79CFF27
:1023E800A368B3F5804F20D0A36C22791A60E36C00
:1023F800226D5A606368013B032B19D9002363657A
:10240800A365E3650020E063012384F8253084F8A0
:10241800240010BD104B0B440D4AA2FB03231B09DB
:102428009B0043640D4B0364C0E700236360DBE754
:102438002046FFF795FF636D00221A60A36DE26DD9
:102448005A60DFE70120704707040240F8FFFDBF2C
:10245800CDCCCCCC00000240F8FBFDBF000402400C
:1024680038B5044690F82400012841D0012084F8AA
:10247800240094F82500C0B2012804D0002384F871
:102488002430022038BD022084F825000020E063B3
:102498002568286820F0010028602046FFF71AFF09
:1024A800236BD3B12268136843F00E031360A36C47
:1024B8001A6812F4803F03D01A6842F480721A60D6
:1024C800636D1BB11A6842F480721A60226813683F
:1024D80043F0010313600020D4E72268136823F057
:1024E800040313602268136843F00A031360DEE7ED
:1024F8000220C7E738B5036C196804682568436C7F
:1025080003F01F0304229A400A4215D015F0040F65
:1025180012D0236813F0200F03D1236823F004039B
:102528002360436C03F01F02016C042393404B604B
:10253800036B03B1984738BD02229A400A421CD067
:1025480015F0020F19D0236813F0200F06D1236865
:1025580023F00A032360012380F82530436C03F03D
:102568001F02016C022393404B60002380F8243043
:10257800C36A002BDFD09847DDE7082202FA03F38D
:102588000B42D8D015F0080FD5D0236823F00E03DE
:102598002360436C03F01F03016C012202FA03F36A
:1025A8004B60C26380F82520002380F82430436BF9
:1025B800002BC0D09847BEE7F0B583B0002362E097
:1025C80085685E000324B44025EA0405CC68B4405D
:1025D8002C438460456825EA0C054C68C4F3001454
:1025E8009C402C4344605FE0DD08083550F82540E6
:1025F80003F0070C4FEA8C0C4FF00F0E0EFA0CFE8E
:1026080024EA0E0E0C6904FA0CF444EA0E0440F8AD
:10261800254060E0052400E0002404FA0EF42C4371
:102628000CF1020C554D45F82C40554CA568D44387
:1026380025EA02064F6817F4801F01D042EA050612
:102648004F4DAE60ED6804EA05064F6817F4001FA9
:1026580001D042EA05064A4DEE606D6804EA0506B7
:102668004F6817F4003F01D042EA0506444D6E60FA
:102678002D682C404E6816F4803F01D042EA0504CC
:102688003F4A146001330A6832FA03F474D04FF0F9
:10269800010C0CFA03FC1CEA0202F3D04C6804F0AB
:1026A8000304013C012C8BD94C6804F00304032C6F
:1026B8000CD0C4685D004FF0030C0CFA05FC24EA4A
:1026C8000C0C8C68AC4044EA0C04C4604C6804F000
:1026D8000304022C88D004684FEA430E4FF0030C21
:1026E8000CFA0EFC24EA0C0C4C6804F0030404FAFF
:1026F8000EF444EA0C0404604C6814F4403FC1D062
:10270800204C256E45F001052566246E04F0010471
:102718000194019C4FEA930C0CF10205174C54F8F4
:10272800255003F0030E4FEA8E0E0F2404FA0EF420
:1027380025EA0405B0F1904F3FF46EAF124CA04269
:1027480012D004F58064A04210D004F58064A04241
:102758000ED004F58064A0420CD004F58064A04239
:102768003FF458AF062458E7012456E7022454E7FB
:10277800032452E7042450E703B0F0BD00000140F1
:102788000004014000100240000400480369194297
:1027980001D00120704700207047000008B5054BA4
:1027A8005B69034200D108BD024B5861FEF744FB48
:1027B800F9E700BF0004014038B512F4804F43D058
:1027C8000468B4F8503091F800C04FEACC0E1EFAF5
:1027D80083F32344B3F80244C4F309048B69A34286
:1027E80028D31B1B8B618B697BB9056835F82C30A6
:1027F8009BB223F4804323F0700383F4005343F423
:10280800004343F0800325F82C3012F0400F0ED01F
:1028180002680D7832F825309BB223F4E04323F0A8
:10282800700343F4004343F0C00322F8253024B971
:10283800204638BD00238B61D5E723460A894969BC
:10284800006803F0C7FBF3E70468B4F8503091F868
:1028580000C04FEACC0E1EFA83F32344B3F80644B3
:10286800C4F309048B69A3422FD31B1B8B618B69AB
:102878007BB9056835F82C309BB223F4804323F0EC
:10288800700383F4005343F4004343F0800325F8B6
:102898002C3012F0400F0FD1026891F800C032F8C6
:1028A8002C309BB223F4E04323F0700343F400433D
:1028B80043F0C00322F82C30002CB9D023464A89B3
:1028C8004969006803F086FBB2E700238B61CEE715
:1028D800002856D010B5044690F891323BB1032336
:1028E80084F89132206802F005FC002315E080F896
:1028F800903204F0D3FAF2E703EB830204EBC2024E
:102908000121517413740021D17411625162013391
:1029180003EB8302D200A150DBB220799842EBD8B6
:10292800002316E003EB830204EBC202002182F8C5
:10293800511182F8503182F85311C2F86011C2F86F
:10294800641103EB830204EBC202C2F8681101337D
:10295800DBB29842E6D8234653F8040B93E8060006
:1029680002F0D2FB00232373012384F89132A37A67
:10297800012B01D0002010BD204600F0F5FE0020FC
:10298800F9E70120704790F89032012B0ED010B56E
:102998000446012380F89032006802F0A2FB206808
:1029A80002F010FF002084F8900210BD022070474A
:1029B80070B505460C46164612F0400F00F00A8125
:1029C8000268B2F850300978C80010FA83F313444B
:1029D800B3F80224C2F30902A36993424DD99B1AA2
:1029E800A361A369002B64D16378002B48D12A68BE
:1029F800B2F8503012FA83F30344B3F80224C2F356
:102A08000902A3F80224B3F802246FEA42426FEAEB
:102A1800524292B2A3F802242A686378002B3BD171
:102A2800B2F8503012FA83F3227803EBC203B3F8FA
:102A38000624C2F30902A3F80624B3F806246FEAB1
:102A480042426FEA524292B2A3F8062421782846FD
:102A580004F06AFA16F4804F40D02A68217832F8D8
:102A680021309BB223F4E04323F0700343F4404346
:102A780043F0800322F8213030E00023A361B0E75F
:102A8800012BC9D12A68B2F8503012FA83F30344F3
:102A98000022A3F80224BFE7012BD7D1B2F85030A7
:102AA80012FA83F3227803EBC2030022A3F8062468
:102AB800CCE716F4804F0DD0286830F821309BB24F
:102AC80023F4E04323F0700343F4404343F08003CE
:102AD80020F8213094F82430012B12D02A6821786C
:102AE80032F821309BB223F4E04323F0400383F013
:102AF800300343F4004343F0800322F821300020E0
:102B080070BD636913446361E3691344E361216A37
:102B18002369994224D3C91A21626278002A44D1D0
:102B28002968B1F8502011FA82F2217802EBC1022B
:102B3800B2F80214C1F30901A2F802143E2B1BD902
:102B4800580913F01F0F00D10138B2F8021489B2E6
:102B5800800280B2014341F40041A2F8021426E049
:102B680021B9002384F824301346D6E7002384F8DB
:102B7800243023620B46D0E74BB9B2F802146FEA4F
:102B880041416FEA514189B2A2F802140FE0590895
:102B980013F0010F00D00131B2F8020480B28902AB
:102BA80089B20143A2F8021401E0012A06D09BB2BF
:102BB80022896169286802F014FE8FE72968B1F854
:102BC800502011FA82F2217802EBC10299B2A2F8E0
:102BD8000214ECE70268B2F850300978C80010FA1D
:102BE80083F31344B3F80624C2F30902A36993429A
:102BF8004ED39B1AA361A369002B65D16378002B80
:102C080049D12A68B2F8503012FA83F30344B3F872
:102C18000224C2F30902A3F80224B3F802246FEADB
:102C280042426FEA524292B2A3F802242A686378B9
:102C3800002B3CD1B2F8503012FA83F3227803EB20
:102C4800C203B3F80624C2F30902A3F80624B3F8B2
:102C580006246FEA42426FEA524292B2A3F806246F
:102C68002178284604F060F916F4804F7FF436AFD7
:102C78002A68217832F821309BB223F4E04323F00C
:102C8800700343F4404343F0800322F8213025E7E2
:102C98000023A361AFE7012BC8D12A68B2F85030EE
:102CA80012FA83F303440022A3F80224BEE7012B9F
:102CB800D6D1B2F8503012FA83F3227803EBC2036C
:102CC8000022A3F80624CBE716F4804F0DD128681C
:102CD80030F821309BB223F4E04323F0700343F42F
:102CE800404343F0800320F8213094F82430012B2E
:102CF8007FF4F4AE636913446361E3691344E361E9
:102D0800216A2369994224D3C91A21622968627801
:102D1800002A43D1B1F8502011FA82F2217802EB4F
:102D2800C102B2F80614C1F30901A2F806143E2B39
:102D38001BD9580913F01F0F00D10138B2F8061437
:102D480089B2800280B2014341F40041A2F806141E
:102D580026E021B9002384F824301346D6E700235F
:102D6800236284F824300B46D0E74BB9B2F8061436
:102D78006FEA41416FEA514189B2A2F806140FE0A7
:102D8800590813F0010F00D00131B2F8060480B2DF
:102D9800890289B20143A2F8061401E0012A06D08B
:102DA8009BB262896169286802F01BFD96E6B1F85A
:102DB800502011FA82F2217802EBC10299B2A2F8EE
:102DC8000614EDE72DE9F04105462868B0F84430CF
:102DD80013F4004F00F08A82B0F84440A3B214F014
:102DE8000F0440F0D88013F0100F69D003889AB20E
:102DF80013F4006F40F0958012F4004FE5D003887B
:102E080023F070031B051B0D43F080030380286823
:102E1800B0F8503095F85021D20012FA83F30344E9
:102E2800B3F80634C3F30903C5F86C318BB1D5F890
:102E3800641171B1B5F8562103F0CCF8D5F86C21BE
:102E4800D5F864311344C5F864310021284604F0EC
:102E58005FF82A68138899B213F4006FB5D101F4AA
:102E68004051B1F5405FB0D0B2F8503012FA83F358
:102E7800B3F80624C2F30902A3F80624D5F86021A2
:102E88003E2A6FD9510912F01F0F00D10139B3F84A
:102E9800062492B2890289B20A4342F40042A3F896
:102EA80006242A6813889BB223F4804323F0700316
:102EB80083F4405343F4004343F08003138084E7D2
:102EC80003889BB223F4E14323F070036FEA434382
:102ED8006FEA53439BB203802968B1F850302A7CCB
:102EE800D20012FA83F30B44B3F80234C3F3090394
:102EF800EB626A6A1A446A620021284604F014F8F0
:102F08002B7B002B3FF461AFAB6A002B7FF45DAFE6
:102F18002B7B2A6843F08003A2F84C3000232B73E4
:102F280053E7B0F8503095F85021D20012FA83F3E5
:102F38000344B3F80634C3F30903C5F86C31B5F894
:102F4800562105F5267103F045F82A68138823F001
:102F580070031B051B0D43F080031380284603F004
:102F6800CFFF32E74AB9B3F806246FEA42426FEA64
:102F7800524292B2A3F8062493E7510812F0010FC7
:102F880000D00131B3F8062490B28A0292B202430B
:102F9800A3F8062485E730F824309EB213F4004FD6
:102FA8004ED116F0800F3FF410AF04EB8401C90036
:102FB800103129442A6832F824309BB223F4E143C3
:102FC80023F070036FEA43436FEA53439BB222F83E
:102FD800243004EB840305EBC303DB7C012B00F0F6
:102FE800E98016F4807F40F07C812868B0F8503082
:102FF80004EB840205EBC202167CF20012FA83F39A
:103008000344B3F80234C3F30903621C02EB8202DF
:1030180055F832209A4240F24B81671C07EB87072C
:10302800D21A45F83720621C02EB820255F832208A
:10303800002A40F044813146284603F075FFC4E673
:1030480030F8243023F070031B051B0D43F0800378
:1030580020F8243004EB8401C90001F5A87105EBC0
:10306800010804EB840305EBC30393F85C31002BE0
:1030780040D12868B0F8503004EB840205EBC20256
:1030880092F85021D20012FA83F30344B3F806747D
:10309800C7F3090717BB04EB840305EBC303D3F895
:1030A8006C213A44C3F86C21D3F864213A44C3F83C
:1030B8006421D3F868313BB104EB840305EBC30307
:1030C800D3F860319F4270D204EB840305EBC3034D
:1030D80093F85011284603F01BFF62E704EB8401C4
:1030E80005EBC1013B46B1F85621D1F8641102F055
:1030F80071FFD0E704EB840305EBC30393F8533166
:10310800022B33D0296804EB840205EBC20292F843
:10311800500131F820309BB223F4E04323F07003D0
:1031280043F4004343F0C00321F82030286892F8A4
:10313800503130F8232012F4804F1ED0B0F85020C0
:10314800DB0013FA82F30344B3F80274C7F30907E8
:10315800002FA0D004EB840105EBC1013B46B1F878
:103168005821D1F8641102F035FF94E73246414600
:103178002846FFF721FB07468DE7B0F85020DB0013
:1031880013FA82F30344B3F80674C7F30907002F50
:1031980081D004EB840105EBC1013B46B1F85A210B
:1031A800D1F8641102F016FF75E74146286802F06D
:1031B8002AFBF6E6631C03EB8303DB000022EA50DC
:1031C80004EB840305EBC3031B7F1BB316F0400F0E
:1031D8003BD004EB840305EBC3035B7C1BBB2A6871
:1031E800B2F8503012FA83F304EB840205EBC20202
:1031F800127C03EBC203B3F80224C2F30902A3F85A
:103208000224B3F802246FEA42426FEA524292B2B1
:10321800A3F8022404EB840405EBC404217C2846AB
:1032280003F082FED1E5012BF4D12A68B2F85030C0
:1032380012FA83F304EB840205EBC202127C03EB5F
:10324800C2030022A3F80224E4E72A6804EB8403FB
:1032580005EBC3035B7CD3B9B2F8503012FA83F3A1
:1032680004EB840205EBC202127C03EBC203B3F841
:103278000624C2F30902A3F80624B3F806246FEA69
:1032880042426FEA524292B2A3F80624C2E7012BE7
:10329800C0D1B2F8503012FA83F304EB840205EB84
:1032A800C202127C03EBC2030022A3F80624B1E792
:1032B800621C02EB8202D2000027AF50B3E604EB97
:1032C800840205EBC202566A1E445662013404EBBE
:1032D800840205EBC20254682344536002F093FA57
:1032E80073E532462846FFF763FB6EE50020BDE82C
:1032F800F08190F89032012B0CD010B504460123D0
:1033080080F890320173006802F056FA002084F8C1
:10331800900210BD0220704710B50446006802F004
:103328005CFA10F4004F23D110F4806F24D110F40C
:10333800804F32D110F4005F39D110F4805F40D152
:1033480010F4006F67D110F0800F40F0818010F406
:10335800007F40F0AD8010F4807F27D02268B2F85B
:1033680044309BB223F480739BB2A2F844301DE032
:103378002046FFF727FD19E02268B2F844309BB2D7
:1033880023F480639BB2A2F84430204603F0DDFDAD
:1033980000212046FFF7ADFF08E02268B2F844306C
:1033A8009BB223F480439BB2A2F8443010BD22683C
:1033B800B2F844309BB223F400539BB2A2F84430D5
:1033C800F4E72268B2F840309BB223F004039BB2C2
:1033D800A2F840302268B2F840309BB223F00803CC
:1033E8009BB2A2F8403094F8C832012B0CD020468A
:1033F80003F0CEFD2268B2F844309BB223F4805328
:103408009BB2A2F84430D1E7002184F8C8122046C4
:1034180003F068FEEBE72268B2F840309BB243F055
:103428000803A2F840302268B2F844309BB223F473
:1034380000639BB2A2F844302268B2F840309BB2D5
:1034480043F00403A2F84030204603F091FDADE7B5
:103458002268B2F844309BB223F080039BB2A2F8F2
:10346800443094F8C832FBB92268B2F840309BB2B5
:1034780043F00403A2F840302268B2F840309BB20F
:1034880043F00803A2F84030012184F8C8122368E9
:10349800B3F85430C3F38D0303F03C03C4F8CC32C3
:1034A800204603F01FFE81E7204603F061FD7DE71B
:1034B8002268B2F844309BB223F400739BB2A2F89E
:1034C8004430204603F03BFD70E710B5044608463B
:1034D80011F0800F26D101F0070C0CEB8C0E4FEA8F
:1034E800CE0E0EF5A87E04EB0E010CEB8C0C04EB53
:1034F800CC0C4FF0000E8CF851E100F0070008707A
:103508000A61CB70022B1DD094F89032012B1CD08D
:10351800012384F89032206801F007FE002084F827
:10352800900210BD01F0070C0CEB8C01C9001031A2
:1035380021440CEB8C0C04EBCC0C4FF0010E8CF8F6
:1035480011E0DAE700230B71DEE70220E9E710B5A6
:1035580004460A4611F0800F1FD101F0070000EB66
:103568008003DB0003F5A873E11800EB800004EB8F
:10357800C000002380F8513102F007020A7094F865
:103588009032012B17D0012384F89032206801F083
:10359800B2FF002084F8900210BD01F0070000EB94
:1035A8008003DB001033E11800EB800004EBC0005F
:1035B80001234374E0E70220EEE710B501F0070CA1
:1035C8000CEB8C01C90001F5A8710CEB8C0E00EB1B
:1035D800CE0ECEF86421CEF868310024CEF86C41C6
:1035E8008EF851418EF850C10144006802F00BF981
:1035F800204610BD38B501F0070C0CEB8C01C90052
:1036080010310CEB8C0E00EBCE0ECEF824200CF112
:10361800010202EB820440F8343001258EF8345060
:10362800CEF8303000EBC402002454608EF81150FC
:103638008EF810C00144006802F0E5F8204638BD55
:103648000B4601F00702017991422ED310B50446CA
:1036580013F0800F1DD103EB8301C90001F5A87198
:10366800014403EB830300EBC303002083F85101FB
:1036780001238B700A7094F89032012B17D0012324
:1036880084F89032206802F021F8002084F8900233
:1036980010BD02EB8201C9001031014402EB820324
:1036A80000EBC30301205874E2E7012070470220B1
:1036B800EEE70B46017903F00F02914234D310B5BF
:1036C800044613F0800F21D103F0070202EB8201B8
:1036D800C90001F5A871014402EB820200EBC202A5
:1036E800002082F8510100228A7003F007030B7052
:1036F80094F89032012B19D0012384F89032206875
:1037080002F009F8002084F8900210BD03F00702C7
:1037180002EB8201C9001031014402EB820200EB86
:10372800C20201205074DEE7012070470220ECE756
:1037380011F0800F0BD001F0070101EB8101C900E6
:103748001031084452B90273C3800020704701EB5E
:103758008101C90001F5A8710844F3E70122027349
:1037680003811B0C4381F0E7034602680121C0F87E
:10377800D012002083F8C802B2F854309BB20B4331
:10378800A2F85430B2F854309BB243F00203A2F8C6
:1037980054307047002836D13E4B1B6803F4C06391
:1037A800B3F5806F08D03B4AD2F8803023F4807399
:1037B800C2F8803000207047364AD2F8803023F4AF
:1037C8008073C2F88030136823F4C06343F4007335
:1037D8001360314B1B68322202FB03F32F4AA2FB12
:1037E80003239B0C013300E0013B2A4A526912F47F
:1037F800806F01D0002BF7D1264B5B6913F4806FE3
:1038080044D100207047B0F5007F08D0214A1368E2
:1038180023F4C06343F480631360002070471D4B9A
:103828001B6803F4C063B3F5806F08D0194AD2F857
:10383800803043F48073C2F8803000207047154A06
:10384800D2F8803043F48073C2F88030136823F4D0
:10385800C06343F4007313600F4B1B68322202FBF2
:1038680003F30E4AA2FB03239B0C013300E0013B48
:10387800084A526912F4806F01D0002BF7D1054B2A
:103888005B6913F4806F03D10020704703207047F1
:1038980003207047007000400C00002083DE1B43AB
:1038A800024A936843F48043936070470070004075
:1038B800124BDA6802F00302DB68C3F30313013327
:1038C800032A11D00E48B0FBF3F00C4BDB68C3F3AE
:1038D800062303FB00F0094BDB68C3F341630133A4
:1038E8005B00B0FBF3F070470648B0FBF3F0034B06
:1038F800DB68C3F3062303FB00F0ECE7001002408B
:103908000024F400006CDC02002800F04F8270B53F
:1039180082B00446036813F0010F37D0A44A9368B5
:1039280003F00C03D26802F003020C2B23D0082BFF
:1039380023D06368B3F5803F4ED0B3F5A02F51D0A4
:103948009B4B1A6822F480321A601A6822F480228B
:103958001A606368002B52D0FDF7DAFE0546944BD7
:103968001B6813F4003F11D1FDF7D2FE401B6428F9
:10397800F5D9032023E2032AD9D18D4B1B6813F410
:10398800003F03D06368002B00F01282236813F015
:10399800020F5DD0864A936803F00C03D26802F0E8
:1039A80003020C2B3AD0042B3AD0E368002B75D0D5
:1039B8007F4A136843F480731360FDF7A9FE054638
:1039C8007B4B1B6813F4806F5FD1FDF7A1FE401B92
:1039D8000228F5D90320F2E1754A136843F48033CD
:1039E8001360B6E703F18043A3F53C331A6842F449
:1039F80080221A601A6842F480321A60A9E7FDF73B
:103A080087FE05466A4B1B6813F4003FBED0FDF7DE
:103A18007FFE401B6428F5D90320D0E1022AC2D1D9
:103A2800634B1B6813F4806F03D0E368002B00F02E
:103A3800C1815F4A536823F0FE43216943EA016369
:103A480053605C4B1868FDF71FFE002840F0B481F6
:103A5800236813F0080F4CD063699BB3544AD2F81B
:103A6800943043F00103C2F89430FDF751FE054647
:103A78004F4BD3F8943013F0020F3AD1FDF748FEBC
:103A8800401B0228F4D9032099E1494A536823F0DE
:103A9800FE43216943EA01635360D9E7444A136846
:103AA80023F480731360FDF733FE0546404B1B6813
:103AB80013F4806FCCD0FDF72BFE401B0228F5D9FC
:103AC80003207CE13A4AD2F8943023F00103C2F88B
:103AD8009430FDF71DFE0546354BD3F8943013F0AE
:103AE800020F06D0FDF714FE401B0228F4D903206C
:103AF80065E1236813F0040F00F081802C4B9B6D67
:103B080013F0805F36D12A4B9A6D42F080529A6545
:103B18009B6D03F080530193019B0125264B1B6885
:103B280013F4807F28D0A368012B39D0052B45D00A
:103B38001F4BD3F8902022F00102C3F89020D3F84D
:103B4800902022F00402C3F89020A368002B43D0F1
:103B5800FDF7DEFD0646164BD3F8903013F0020F42
:103B68004CD1FDF7D5FD801B41F288339842F2D93C
:103B7800032024E10025D1E70F4A136843F480733A
:103B88001360FDF7C5FD06460B4B1B6813F4807FD9
:103B9800C9D1FDF7BDFD801B0228F5D903200EE130
:103BA800034AD2F8903043F00103C2F89030CCE7D2
:103BB800001002401400002000700040884BD3F829
:103BC800902042F00402C3F89020D3F8902042F0ED
:103BD8000102C3F89020B8E7FDF79AFD0646804B2E
:103BE800D3F8903013F0020F08D0FDF791FD801B39
:103BF80041F288339842F2D90320E0E0E5B923681E
:103C080013F0200F35D0A369E3B1754AD2F8983084
:103C180043F00103C2F89830FDF77AFD0546704B72
:103C2800D3F8983013F0020F23D1FDF771FD401B34
:103C38000228F4D90320C2E0694A936D23F0805327
:103C48009365DCE7664AD2F8983023F00103C2F89E
:103C58009830FDF75DFD0546614BD3F8983013F0B9
:103C6800020F06D0FDF754FD401B0228F4D90320AB
:103C7800A5E0E369002B00F0A180594A926802F0A0
:103C88000C020C2A64D0022B13D0554A136823F077
:103C980080731360FDF73CFD0446514B1B6813F01D
:103CA800007F4ED0FDF734FD001B0228F5D9032014
:103CB80085E04B4A136823F080731360FDF728FDF5
:103CC8000546474B1B6813F0007F06D0FDF720FD23
:103CD800401B0228F5D9032071E0414AD3684149C5
:103CE8001940236A606A013843EA0013A06A43EA6C
:103CF8000023206B4008013843EA4053606B4008BA
:103D0800013843EA4063E06A43EAC0631943D1607B
:103D1800136843F080731360D36843F08073D360F3
:103D2800FDF7F6FC04462E4B1B6813F0007F06D106
:103D3800FDF7EEFC001B0228F5D903203FE0002028
:103D48003DE0274AD168284B0B40D360002036E07D
:103D5800012B36D0224BDB6803F00301226A914223
:103D680031D103F0F002616A0139B2EB011F2CD1A5
:103D780003F4FE42A16AB2EB012F28D103F0784286
:103D8800E16AB2EBC16F24D103F4C001226B52087F
:103D9800013AB1EB425F1ED103F0C063626B520877
:103DA800013AB3EB426F18D1002008E001207047B8
:103DB800012004E0012002E0012000E0002002B020
:103DC80070BD0120FBE70120F9E70120F7E701209A
:103DD800F5E70120F3E70120F1E70120EFE700BF55
:103DE800001002400C809F01FCFFEEFE1E4B9B68FA
:103DF80003F00C03042B33D01B4B9B6803F00C031C
:103E0800082B2FD0184B9B6803F00C030C2B01D008
:103E180000207047144BDA6802F00302DB68C3F332
:103E280003130133032A11D01048B0FBF3F00E4BF3
:103E3800DB68C3F3062303FB00F00B4BDB68C3F31B
:103E4800416301335B00B0FBF3F070470848B0FBF7
:103E5800F3F0054BDB68C3F3062303FB00F0ECE744
:103E68000248704702487047001002400024F400DE
:103E7800006CDC02002800F0E680F8B50C46054628
:103E8800744B1B6803F00F038B420BD2714A136803
:103E980023F00F030B431360136803F00F038B42E7
:103EA80040F0D3802E6816F001065FD06B68032BB4
:103EB8002FD0022B4DD0684B1B6813F4806F00F095
:103EC800C680FFF793FF654B98424DD9624A9368C5
:103ED80023F0F00343F08003936080265E4A9368E2
:103EE80023F0030369680B439360FDF711FC074651
:103EF800594B9B6803F00C036A68B3EB820F35D00B
:103F0800FDF706FCC01B41F288339842F0D9032024
:103F180078E0514B1B6813F0007F01D1012071E05C
:103F2800FFF7C6FC4D4B98421AD94B4B9B6813F0D0
:103F3800F00F05D02E6816F00206CFD0AB688BB90B
:103F4800454A936823F0F00343F08003936080268A
:103F5800C4E7414B1B6813F4003FB2D1012051E084
:103F68000026BBE70026B9E70026B7E72B6813F061
:103F7800020F48D013F0040F04D0374A936843F473
:103F8800E06393602B6813F0080F06D0324A9368F9
:103F980023F47C5343F4E06393602F4A936823F03F
:103FA800F003A9680B4393602A4B1B6803F00F03C7
:103FB800A34230D82B6813F0040F06D0264A936822
:103FC80023F4E063E9680B4393602B6813F0080F50
:103FD80007D0214A936823F46053296943EAC1034F
:103FE8009360FFF703FF1C4B9B68C3F303131C4A42
:103FF800D35C03F01F03D8401A4B18601A4B18689B
:10400800FDF742FBF8BD802ECED1134A936823F00A
:10401800F0039360C8E70F4A136823F00F032343A4
:104028001360FDF775FB06460A4B1B6803F00F0388
:10403800A342BFD0FDF76CFB801B41F28833984246
:10404800F2D90320DEE7012070470120DAE70120DA
:10405800D8E700BF002002400010024000B4C404AA
:10406800B07100080C00002014000020F0B583B0E7
:104078000446036813F4002F69D0AE4B9B6D13F010
:10408800805F1ED1AB4B9A6D42F080529A659B6D52
:1040980003F080530193019B0126A74A136843F458
:1040A80080731360FDF734FB0546A34B1B6813F4BC
:1040B800807F08D1FDF72CFB401B0228F5D903258A
:1040C80002E00026E9E7002545BB9A4BD3F890307B
:1040D80013F4407315D0226C9A4212D0954AD2F844
:1040E800903023F44073D2F8901041F48031C2F834
:1040F8009010D2F8901021F48031C2F89010C2F8D4
:10410800903013F0010F10D145B98A4AD2F8903097
:1041180023F44073216C0B43C2F89030C6B1854A32
:10412800936D23F08053936512E0FDF7F1FA07468B
:10413800804BD3F8903013F0020FE5D1FDF7E8FA81
:10414800C01B41F288339842F2D90325DCE70025E9
:10415800236813F0010F08D0764AD2F8883023F08C
:10416800030361680B43C2F88830236813F0020F19
:1041780008D0704AD2F8883023F00C03A1680B43AA
:10418800C2F88830236813F0040F08D0694AD2F8BF
:10419800883023F03003E1680B43C2F88830236885
:1041A80013F0080F08D0634AD2F8883023F0C00310
:1041B80021690B43C2F88830236813F0200F08D018
:1041C8005C4AD2F8883023F4406361690B43C2F833
:1041D8008830236813F0400F08D0564AD2F8883048
:1041E80023F44053A1690B43C2F88830236813F0C5
:1041F800800F08D04F4AD2F8883023F44043E16951
:104208000B43C2F88830236813F4807F08D0494AEA
:10421800D2F8883023F44033216A0B43C2F888303F
:10422800236813F4007F08D0424AD2F8883023F478
:104238004023616A0B43C2F88830236813F4806F07
:104248000CD03C4AD2F8883023F44013A16A0B43BF
:10425800C2F88830A36AB3F5801F57D0236813F4D7
:10426800006F0CD0334AD2F8883023F44003E16A57
:104278000B43C2F88830E36AB3F5800F4BD023684C
:1042880013F4805F0CD02B4AD2F8883023F04073A7
:10429800216B0B43C2F88830236BB3F1807F3FD08A
:1042A800236813F4005F0CD0224AD2F8883023F038
:1042B8004063616B0B43C2F88830636BB3F1006FE6
:1042C80033D0236813F4804F0CD01A4AD2F88830C0
:1042D80023F04063A16B0B43C2F88830A36BB3F1A2
:1042E800006F2BD0236813F4004F0CD0114AD2F87A
:1042F800883023F04053E16B0B43C2F88830E36BFE
:10430800B3F1805F1FD0284603B0F0BDD36843F4F3
:104318008013D360A2E7D36843F48013D360AEE779
:10432800D36843F48013D360BAE7D36843F48013A7
:10433800D360C6E70010024000700040D36843F421
:104348008013D360CEE7D36843F48033D360DAE7D1
:1043580030B4026A036A23F0010303624468836984
:1043680023F4803323F073030D681D4322F0020207
:104378008B6813431C4A90420FD002F500629042AA
:104388000BD002F54062904207D002F5806290425D
:1043980003D002F58062904205D123F00803CA6871
:1043A8001A4322F00403104A90420FD002F500622B
:1043B80090420BD002F54062904207D002F580622D
:1043C800904203D002F58062904205D124F44074F3
:1043D8004A6922438C691443446085614A68426390
:1043E800036230BC704700BF002C014030B4036A40
:1043F800026A22F4807202624468C26922F480323E
:1044080022F073020D68154323F400738A6843EAA7
:104418000223184A904203D002F50062904206D166
:1044280023F40063CA6843EA022323F48063114A31
:1044380090420FD002F5006290420BD002F5406224
:10444800904207D002F58062904203D002F5806264
:10445800904207D124F440524C6942EA04128C6914
:1044680042EA04144460C5614A68C263036230BC0E
:10447800704700BF002C014030B4036A026A22F47E
:10448800805202624468C26922F0807222F4E642D5
:104498000D6842EA052223F400538D6843EA053388
:1044A800174DA84203D005F50065A84206D123F4AC
:1044B8000043CD6843EA053323F48043104DA842F6
:1044C8000FD005F50065A8420BD005F54065A84258
:1044D80007D005F58065A84203D005F58065A84298
:1044E80007D124F4404C4C694CEA841C8C694CEA92
:1044F80084144460C2614A680264036230BC704735
:10450800002C014030B4036A026A22F4803202624D
:104518004468026D22F4803222F070020D6815435F
:1045280023F400338A6843EA02430F4A90420FD0CB
:1045380002F5006290420BD002F54062904207D02B
:1045480002F58062904203D002F58062904204D165
:1045580024F480344A6944EA0224446005654A68C0
:104568008264036230BC7047002C014030B4036A97
:10457800026A22F4801202624468026D22F080729C
:1045880022F4E0420D6842EA052223F400138D6804
:1045980043EA05530F4DA8420FD005F50065A84220
:1045A8000BD005F54065A84207D005F58065A842FF
:1045B80003D005F58065A84204D124F480244D6910
:1045C80044EA8524446002654A68C264036230BCD8
:1045D800704700BF002C014090F83D30DBB2012B42
:1045E8002DD1022380F83D300368184A934218D031
:1045F800B3F1804F15D0A2F59432934211D002F551
:10460800806293420DD002F59632934209D002F5AA
:104618004062934205D01A6842F001021A600020F5
:10462800704799680A4A0A40062A0AD0B2F5803FBC
:1046380009D01A6842F001021A6000207047012070
:104648007047002070470020704700BF002C0140D1
:104658000700010090F83D30DBB2012B32D1022374
:1046680080F83D300268D36843F00103D3600368E3
:10467800174A934218D0B3F1804F15D0A2F594325F
:10468800934211D002F5806293420DD002F5963222
:10469800934209D002F54062934205D01A6842F06D
:1046A80001021A600020704799680A4A0A40062ADF
:1046B8000AD0B2F5803F09D01A6842F001021A60A8
:1046C8000020704701207047002070470020704785
:1046D800002C01400700010070477047704710B573
:1046E800846A636A83420ED0A36A834214D0E36A61
:1046F80083421AD0236B834220D02046FFF7EEFF77
:104708000023237710BD01232377C369002BF4D13D
:10471800012384F83E30F0E702232377C369002B96
:10472800EBD1012384F83F30E7E704232377C369FB
:10473800002BE2D1012384F84030DEE708232377F9
:10474800C369002BD9D1012384F84130D5E77047DC
:1047580010B5846A636A83420BD0A36A834210D07F
:10476800E36A834210D0236B834204D10823237762
:1047780001E0012323772046FFF7E9FF0023237791
:1047880010BD02232377F6E704232377F3E7704766
:1047980070B505460368DE681C6914F0020F10D076
:1047A80016F0020F0DD06FF002021A610123037791
:1047B80003689B6913F0030F7CD0FFF78EFF00237B
:1047C8002B7714F0040F12D016F0040F0FD02B68BB
:1047D8006FF004021A6102232B772B689B6913F48C
:1047E800407F6DD02846FFF778FF00232B7714F021
:1047F800080F12D016F0080F0FD02B686FF00802C0
:104808001A6104232B772B68DB6913F0030F5ED042
:104818002846FFF762FF00232B7714F0100F12D001
:1048280016F0100F0FD02B686FF010021A610823D2
:104838002B772B68DB6913F4407F4FD02846FFF7AE
:104848004CFF00232B7714F0010F02D016F0010F54
:104858004BD114F4025F02D016F0800F4DD114F43E
:10486800807F02D016F0800F4FD114F0400F02D095
:1048780016F0400F51D114F0200F02D016F0200F7F
:1048880053D114F4801F02D016F4801F55D114F4AC
:10489800001F02D016F4001F57D114F4800F02D065
:1048A80016F4800F59D114F4000F02D016F4000F3B
:1048B8005BD170BDFFF710FF2846FFF70FFF7EE7BB
:1048C8002846FFF709FF2846FFF708FF8DE7284627
:1048D800FFF702FF2846FFF701FF9CE72846FFF78E
:1048E800FBFE2846FFF7FAFEABE72B686FF00102E4
:1048F8001A612846FCF7FCF8ABE72B686FF4025204
:104908001A61284600F0E7FBA9E72B686FF480726C
:104918001A61284600F0E0FBA7E72B686FF0400219
:104928001A612846FFF733FFA5E72B686FF02002CE
:104938001A61284600F0CEFBA3E72B686FF48012BB
:104948001A61284600F0C9FBA1E72B686FF4001232
:104958001A61284600F0C2FB9FE72B686FF48002BB
:104968001A61284600F0BBFB9DE72B686FF4000234
:104978001A61284600F0B4FB9BE7704710B5846ABB
:10498800636A83420CD0A36A834213D0E36A8342EA
:1049980016D0236B834219D0012384F83D3003E0FD
:1049A8000123237784F83E302046FFF7E6FF0023F3
:1049B800237710BD02232377012384F83F30F3E7E0
:1049C80004232377012384F84030EDE70823237775
:1049D800012384F84130E7E70368304A90420ED05B
:1049E800B0F1804F0BD0A2F59432904207D002F577
:1049F8008062904203D002F59632904203D123F0B0
:104A080070034A681343254A90421AD0B0F1804F88
:104A180017D0A2F59432904213D002F580629042EA
:104A28000FD002F5963290420BD002F540629042C8
:104A380007D002F58062904203D002F5806290426E
:104A480003D123F44073CA68134323F080034A69EF
:104A5800134303608B68C3620B6883620F4B9842F1
:104A68000FD003F5006398420BD003F540639842DA
:104A780007D003F58063984203D003F5806398421A
:104A880001D10B69036301234361036913F0010F2B
:104A980003D0036923F0010303617047002C014030
:104AA80060B310B5044690F83D3013B3022384F880
:104AB8003D30214651F8040BFFF78EFF012384F89F
:104AC800483084F83E3084F83F3084F8403084F829
:104AD800413084F8423084F8433084F8443084F814
:104AE800453084F8463084F8473084F83D3000205B
:104AF80010BD80F83C30FCF7A1FCD7E701207047D7
:104B080060B310B5044690F83D3013B3022384F81F
:104B18003D30214651F8040BFFF75EFF012384F86E
:104B2800483084F83E3084F83F3084F8403084F8C8
:104B3800413084F8423084F8433084F8443084F8B3
:104B4800453084F8463084F8473084F83D300020FA
:104B580010BD80F83C30FCF737FCD7E701207047E0
:104B680030B4036A026A22F0100202624468826961
:104B780022F0807222F4E6420D6842EA052223F010
:104B880020038D6843EA0513174DA84203D005F5A5
:104B98000065A84206D123F08003CD6843EA0513D7
:104BA80023F04003104DA8420FD005F50065A84238
:104BB8000BD005F54065A84207D005F58065A842E9
:104BC80003D005F58065A84207D124F4406C4C69F0
:104BD8004CEA840C8C694CEA8404446082614A681B
:104BE8008263036230BC7047002C014038B590F8EE
:104BF8003C30012B00F0958004460D46012380F8D7
:104C08003C30142A00F28880DFE802F00B868686A2
:104C18001F86868634868686488686865D8686864C
:104C280071000068FFF794FB2268936943F008035A
:104C380093612268936923F004039361226893695E
:104C480029690B439361002067E00068FFF788FF3C
:104C58002268936943F4006393612268936923F49B
:104C68008063936122689369296943EA0123936108
:104C7800002052E00068FFF7B9FB2268D36943F0CF
:104C88000803D3612268D36923F00403D36122683F
:104C9800D36929690B43D36100203EE00068FFF720
:104CA800EBFB2268D36943F40063D3612268D369BC
:104CB80023F48063D3612268D369296943EA012315
:104CC800D361002029E00068FFF71CFC2268136DFF
:104CD80043F0080313652268136D23F0040313657A
:104CE8002268136D29690B431365002015E00068DD
:104CF800FFF73CFC2268136D43F4006313652268D8
:104D0800136D23F4806313652268136D296943EAE0
:104D180001231365002000E00120002384F83C30C3
:104D280038BD0220FCE701F01F014FF0010C0CFA1E
:104D380001FC036A23EA0C030362036A8A401343F3
:104D48000362704738B505460C461146102C41D809
:104D5800DFE804F0094040402040404028404040FF
:104D680030404040380090F83E00C0B2022814BFDE
:104D780000200120002840F04281102C6FD8DFE885
:104D880004F0316E6E6E4E6E6E6E566E6E6E5E6EA8
:104D98006E6E660090F83F00C0B2022814BF002073
:104DA8000120E7E790F84000C0B2022814BF0020B5
:104DB8000120DFE790F84100C0B2022814BF0020AC
:104DC8000120D7E790F84200C0B2022814BF0020A3
:104DD8000120CFE790F84300C0B2022814BF00209A
:104DE8000120C7E795F83E20D2B2012A14BF00225D
:104DF8000122002A00F00581002900F00481002B1F
:104E080000F00381102C57D8DFE804F031565656CD
:104E1800465656564A5656564E565656520095F8C7
:104E28003F20D2B2012A14BF00220122E1E795F8FF
:104E38004020D2B2012A14BF00220122D9E795F8F6
:104E48004120D2B2012A14BF00220122D1E795F8ED
:104E58004220D2B2012A14BF00220122C9E795F8E4
:104E68004320D2B2012A14BF00220122C1E7022244
:104E780085F83E200C2C00F2CA80DFE814F02100EF
:104E8800C800C800C8007100C800C800C800870072
:104E9800C800C800C8009D00022285F83F20E9E745
:104EA800022285F84020E5E7022285F84120E1E763
:104EB800022285F84220DDE7022285F84320D9E75F
:104EC8006A6A5A48D0626A6A594810636A6A5948D5
:104ED80050632A683432686AFDF7C2FA002840F045
:104EE80098802A68D36843F40073D360012221466E
:104EF8002868FFF718FF2B684F4A93420FD002F536
:104F0800006293420BD002F54062934207D002F54B
:104F18008062934203D002F58062934203D15A6CB7
:104F280042F400425A642B68434A934259D0B3F181
:104F3800804F56D0A2F59432934252D002F5806247
:104F480093424ED002F5963293424AD002F540621F
:104F5800934246D01A6842F001021A60002051E0DC
:104F6800AA6A3248D062AA6A31481063AA6A3148EC
:104F780050632A683832A86AFDF772FA00284AD1C5
:104F88002A68D36843F48063D360AFE7EA6A2748A6
:104F9800D062EA6A26481063EA6A264850632A689B
:104FA8003C32E86AFDF75CFA002836D12A68D368F3
:104FB80043F40063D36099E72A6B1C48D0622A6BDC
:104FC8001B4810632A6B1B4850632A684032286BC1
:104FD800FDF746FA18BB2A68D36843F48053D360B8
:104FE80084E79968154A0A40062A1AD0B2F5803F24
:104FF80019D01A6842F001021A60002002E002206B
:1050080000E0012038BD0120FCE70120FAE701207B
:10501800F8E70120F6E70120F4E70120F2E7012094
:10502800F0E70020EEE70020ECE700BFE7460008C5
:105038005947000885490008002C01400700010075
:1050480090F83C20012A40D030B40346012280F871
:105058003C20022280F83D200068426884681C4D8C
:10506800A84203D005F50065A84203D122F47002D6
:105078004D682A4322F0007222F070020D682A431C
:1050880042601A681248824212D0B2F1804F0FD0A3
:10509800A0F5943082420BD000F58060824207D0A0
:1050A80000F59630824203D000F54060824204D178
:1050B80024F08004896821439160012283F83D200F
:1050C800002083F83C0030BC70470220704700BFC6
:1050D800002C014070477047704770477047704711
:1050E800704703460020A3F844004BF68072A3F8EB
:1050F80040207047B0F8403023F47E535B045B0CCB
:10510800A0F840300020704782B0034602A800E9AA
:1051180006000122A3F840200020A3F84000A3F8CD
:105128004400A3F8500002B0704710B5034691F848
:1051380000C030F82C2092B222F4EC4222F0700227
:1051480092B2C878032862D8DFE800F0565D0259A9
:10515800002048F2800E42EA0E0223F82C2091F833
:1051680000C033F82C2012B222F4E04222F0700280
:105178004CEA020292B242EA0E0223F82C200A7B81
:10518800002A40F0DC804A78002A51D0B3F8502039
:1051980013FA82F20C7802EBC402B1F806C04FEAA7
:1051A8005C0C4FEA4C0CA2F800C40C7833F82420AD
:1051B80012F0400F0CD033F8242092B222F4E042CF
:1051C80022F0700242F4004242F0C00223F8242088
:1051D800CA78012A1DD0097833F8212092B222F426
:1051E800E04222F0400282F0200242F4004242F003
:1051F800800223F8212017E142F40072A9E742F463
:10520800C0620020A5E742F480620020A1E70120E7
:105218009FE7097833F8212092B222F4E04222F085
:10522800400242F4004242F0800223F82120FBE0D1
:10523800B3F8502013FA82F20C7802EBC402B1F8EA
:1052480006C04FEA5C0C4FEA4C0CA2F804C4B3F851
:10525800502013FA82F20C7802EBC402B2F806C4AA
:10526800CCF3090CA2F806C40C693E2C39D94FEAD4
:10527800541E14F01F0F01D10EF1FF3EB2F806C400
:105288001FFA8CFC4FEA8E2E1FFA8EFE4CEA0E0C8B
:105298004CF4004CA2F806C40C7833F8242012F41D
:1052A800804F0CD033F8242092B222F4E04222F04E
:1052B800700242F4404242F0800223F82420097828
:1052C80069BB33F8212092B222F4804222F07002A6
:1052D80082F4405242F4004242F0800223F8212036
:1052E800A2E04CB9B2F806446FEA44446FEA544469
:1052F800A4B2A2F80644CFE74FEA540C14F0010F09
:1053080001D00CF1010CB2F80644A4B24FEA8C2C7F
:105318001FFA8CFC44EA0C04A2F80644BCE733F8F4
:10532800212092B222F4804222F0700282F40052CC
:1053380042F4004242F0800223F8212074E0CA7847
:10534800022A72D00C7833F8242092B222F4E24276
:1053580022F0700242F4004242F0800223F8242036
:10536800B3F8502013FA82F291F800C002EBCC0295
:10537800B1F808C04FEA5C0C4FEA4C0CA2F800C424
:10538800B3F8502013FA82F291F800C002EBCC0275
:10539800B1F80AC04FEA5C0C4FEA4C0CA2F804C4FE
:1053A8004A78002A50D10C7833F8242012F4804F20
:1053B8000CD033F8242092B222F4E04222F070029A
:1053C80042F4404242F0800223F824200C7833F85B
:1053D800242012F0400F0CD033F8242092B222F48B
:1053E800E04222F0700242F4004242F0C00223F888
:1053F800242091F800C033F82C2092B222F4804285
:1054080022F0700282F4405248F28004224323F8CA
:105418002C20097833F8212092B222F4E04222F0BD
:105428004002224323F8212010BD0C7833F82420B1
:1054380092B222F4E04222F0700242F4014242F0B9
:10544800800223F824208BE70C7833F8242012F408
:10545800804F0CD033F8242092B222F4E04222F09C
:10546800700242F4404242F0800223F824200C7873
:1054780033F8242012F0400F0CD033F8242092B2D5
:1054880022F4E04222F0700242F4004242F0C002EC
:1054980023F82420CA78012A1ED00C7833F8242057
:1054A80092B222F4E04222F0400282F0200242F45A
:1054B800004242F0800223F82420097833F82120A2
:1054C80092B222F4804222F0700242F4004242F08A
:1054D800800223F82120A7E70C7833F8242092B221
:1054E80022F4E04222F0400242F4004242F08002FC
:1054F80023F82420E1E70B7B002B46D14B7813B32C
:105508000A7830F8223013F0400F0CD030F82230EF
:105518009BB223F4E04323F0700343F4004343F0C9
:10552800C00320F822300A7830F822309BB223F4E6
:10553800E04323F0400343F4004343F0800320F8A2
:105548002230002070470A7830F8223013F4804F58
:105558000CD030F822309BB223F4E04323F07003E0
:1055680043F4404343F0800320F822300A7830F8AF
:1055780022309BB223F4804323F0700343F40043AA
:1055880043F0800320F82230DBE74B78002B4ED124
:105598000A7830F8223013F4804F0CD030F82230DB
:1055A8009BB223F4E04323F0700343F4404343F0F9
:1055B800800320F822300A7830F8223013F0400FA8
:1055C8000CD030F822309BB223F4E04323F0700370
:1055D80043F4004343F0C00320F822300A7830F83F
:1055E80022309BB223F4E04323F0700343F40043DA
:1055F80043F0C00320F822300A7830F822309BB2FA
:1056080023F4804323F0700348F2800C43EA0C0330
:1056180020F822300A7830F822309BB223F4E04395
:1056280023F0400343EA0C0320F8223089E70A7884
:1056380030F8223013F4804F0CD030F822309BB26F
:1056480023F4E04323F0700343F4404343F0800322
:1056580020F822300A7830F8223013F0400F0CD0AE
:1056680030F822309BB223F4E04323F0700343F474
:10567800004343F0C00320F822300A7830F8223083
:105688009BB223F4E04323F0700343F4404343F018
:10569800800320F822300A7830F822309BB223F4B5
:1056A800E04323F0400348F2800C43EA0C0320F85F
:1056B80022300A7830F822309BB223F4804323F05A
:1056C800700343EA0C0320F822303AE74B788BB199
:1056D8000A7830F822309BB223F4E04323F04003E9
:1056E80083F0100343F4004343F0800320F8223092
:1056F800002070470A7830F822309BB223F48043A8
:1057080023F0700383F4805343F4004343F0800391
:1057180020F82230ECE70B7B002B4BD14B7833B3CE
:105728000A7830F8223013F0400F0CD030F82230CD
:105738009BB223F4E04323F0700343F4004343F0A7
:10574800C00320F82230CB78012B33D00A7830F808
:1057580022309BB223F4E04323F0400383F020037C
:1057680043F4004343F0800320F8223022E00A7813
:1057780030F8223013F4804F0CD030F822309BB22E
:1057880023F4E04323F0700343F4404343F08003E1
:1057980020F822300A7830F822309BB223F4804374
:1057A80023F0700383F4405343F4004343F0800331
:1057B80020F822300020704711B98023A0F84C301F
:1057C80000207047B0F858306FEA43436FEA5343FC
:1057D8009BB2A0F8583000207047B0F8440080B25F
:1057E800704701335B08024402F5806208E00878DC
:1057F80091F801C040EA0C2022F8020B0231013B6B
:10580800002BF4D1704770B505460C464A78012A3A
:105818003BD00B7B002B40F0A6828B690A69934230
:1058280040F284829B1A8B61B5F8503015FA83F3E5
:10583800217803EBC103B3F80614C1F30901A3F8F7
:1058480006143E2A40F27682510912F01F0F00D149
:105858000139B3F8062492B2890289B20A4342F4A4
:105868000042A3F80624227835F822309BB223F4AC
:10587800804323F0700383F4405343F4004343F020
:10588800800325F82230002070BD8E6909698E4298
:1058980000D90E46237B73B3E378022B4DD0236ADD
:1058A8009B1B2362237835F8231011F0400F00F07A
:1058B800F581002A40F0E281B5F8502015FA82F20D
:1058C80002EBC303B3F80624C2F30902A3F80624C3
:1058D8003E2E40F2BA81710916F01F0F00D101392E
:1058E800B3F8062492B2890289B20A4342F400420C
:1058F800A3F80624CBE1B6B23346E28861692846AC
:10590800FFF76FFFB5F8503015FA83F3227803EBF1
:10591800C203A3F80264227835F822309BB223F43C
:10592800E04323F0400383F0300343F4004343F0A3
:10593800800325F822300020A6E7236A994280F0E8
:105948006681227835F822309BB223F4E04323F0B5
:10595800700343F4014343F0800325F82230236A9F
:105968009B1B2362237835F8232012F0400F00F0A8
:10597800A7806278B2BBB5F8502015FA82F202EB24
:10598800C303B3F80624C2F30902A3F806243E2E83
:105998000FD9710916F01F0F00D10139B3F8062489
:1059A80092B2890289B20A4342F40042A3F806245B
:1059B8001AE04EB9B3F806246FEA42426FEA52423F
:1059C80092B2A3F806240FE0720816F0010F00D077
:1059D8000132B3F8061489B2920292B20A43A3F8CC
:1059E800062401E0012A30D0B3B2628961692846F1
:1059F800FFF7F7FE636933446361236A22699342C0
:105A08002DD99B1B23626378002B45D1B5F8503004
:105A180015FA83F3227803EBC203B3F80224C2F326
:105A28000902A3F802243E2E1DD9710916F01F0F92
:105A380000D10139B3F8022492B2890289B20A432B
:105A480042F40042A3F8022428E0B5F8502015FAE1
:105A580082F202EBC303B2B2A3F80624C4E7002221
:105A680022621E46CFE74EB9B3F802246FEA4242DB
:105A78006FEA524292B2A3F802240FE0720816F0BD
:105A8800010F00D00132B3F8021489B2920292B227
:105A98000A43A3F8022401E0012B06D0B3B22289FD
:105AA80061692846FFF79DFE35E7B5F8503015FACD
:105AB80083F3227803EBC203B2B2A3F80224EDE722
:105AC8006278B2BBB5F8502015FA82F202EBC30334
